:100000000C9462010C948A010C948A010C948A016C
:100010000C948A010C948A010C948A010C948A0134
:100020000C948A010C948A010C948A010C948A0124
:100030000C948A010C948A010C948A010C948A0114
:100040000C940B320C948A010C94E6040C94220557
:100050000C948A010C948A010C948A010C948A01F4
:100060000C948A010C948A01084AD73B3BCE016E5E
:1000700084BCBFFDC12F3D6C74319ABD56833DDAFF
:100080003D00C77F11BED9E4BB4C3E916BAAAABE0E
:10009000000000803F05A84CCDB2D44EB93836A937
:1000A000020C50B9918688083CA6AAAA2ABE000074
:1000B00000803F0664EC1B3C04BC163E3BE5B93CAB
:1000C000C93C37C29E5A3D660498083EEA69AAAA0E
:1000D0003E000000803F2020202020202020004ED5
:1000E0006F206D61762064617461210020202020E2
:1000F00020202020202020202020207C20202020A4
:1001000020202020202020202020207CC6202020ED
:10011000202020202020202020C5207C20202020DE
:1001200020202020202020202020207C2020202073
:100130002020202020202020202020004D696E69D2
:100140006D4F53442D457874726120322E347C43B8
:100150006F7074657220723830350043440A005263
:1001600046460A0000407A10F35A00A0724E180961
:100170000010A5D4E80000E87648170000E40B540E
:10018000020000CA9A3B000000E1F50500008096DD
:100190009800000040420F000000A086010000000F
:1001A000102700000000E8030000000064000000C9
:1001B00000000A00000000000100000000002C7692
:1001C000D888DC674F0823DFC1DFAE59E1B1B796AD
:1001D000E5E3E453C63AE651997696E8E6C284260A
:1001E000EB898C9B62ED407C6FFCEFBC9C9F40F2E6
:1001F000BAA56FA5F490055A2AF75C936B6CF96762
:100200006DC11BFCE0E40D47FEF520E6B500D0ED26
:10021000902E0300943577050080841E080000208E
:100220004E0A000000C80C333333330F986E12832C
:100230001141EF8D2114893BE65516CFFEE6DB1800
:10024000D1844B381BF77C1D901DA4BBE4242032C5
:1002500084725E228100C9F124ECA1E53D276E6124
:100260006E00696E660000000000240027002A006E
:1002700000000000250028002B00000000002300E3
:1002800026002900040404040404040402020202F7
:100290000202030303030303010204081020408049
:1002A00001020408102001020408102000000007C9
:1002B000000201000003040600000000000000002E
:1002C00070050F2A11241FBECFEFD8E0DEBFCDBFCF
:1002D00014E0A0E0B1E0E2EFFFE602C005900D926D
:1002E000A436B107D9F716E0A4E6B4E001C01D9228
:1002F000AB39B107E1F712E0C4ECD2E004C02297B9
:10030000FE010E94F337C03CD107C9F70E94923327
:100310000C94F7370C940000283008F027E03327BE
:10032000DA01990F311D87FD916000966105710515
:1003300039F432602E5F3D9330E32A95E1F708955A
:100340009F3F30F080387105610509F03C5F3C5FEC
:100350003D93913008F08068911DDF93CF931F93F8
:100360000F93FF92EF92192F987F9695E92F96950C
:100370009695E90FFF27E254FE4F99273327EE2485
:10038000FF24A701E70105900894079428F4360F8D
:10039000E71EF81E491F511D660F771F881F991F02
:1003A0000694A1F70590079428F4E70EF81E491F5C
:1003B000561FC11D770F881F991F661F0694A1F74E
:1003C0000590079428F4F80E491F561FC71FD11D2A
:1003D000880F991F661F771F0694A1F70590079451
:1003E00020F4490F561FC71FD81F990F661F771F8C
:1003F000881F0694A9F784911095177041F0D6953F
:10040000C79557954795F794E7941A95C1F7E4E691
:10041000F1E068941590159135916591959105904D
:100420007FE27395E118F10A430B560BC90BD00913
:10043000C0F7E10CF11E431F561FC91FD01D7EF4EB
:10044000703311F48A95E6CFE894015030F0080F2C
:100450000AF40027021708F4202F2395022F7A337D
:1004600028F079E37D932A95E9F710C07D932A95CA
:1004700089F6069497956795379517951794E1181F
:10048000F10A430B560BC90BD00998F023957E91C6
:1004900073957A3308F070E37C932013B8F77E915C
:1004A00070617D9330F0839571E37D9370E32A95BD
:1004B000E1F71124EF90FF900F911F91CF91DF9101
:1004C000992787FD90950895FA01AA27283051F1C0
:1004D000203181F1E8946F936E7F6E5F7F4F8F4F75
:1004E0009F4FAF4FB1E03ED0B4E03CD0670F781FD4
:1004F000891F9A1FA11D680F791F8A1F911DA11DB9
:100500006A0F711D811D911DA11D20D009F46894F1
:100510003F912AE0269F11243019305D3193DEF699
:10052000CF010895462F4770405D4193B3E00FD04F
:10053000C9F7F6CF462F4F70405D4A3318F0495D3A
:1005400031FD4052419302D0A9F7EACFB4E0A6951D
:100550009795879577956795BA95C9F7009761053F
:10056000710508959B01AC010A2E06945795479595
:1005700037952795BA95C9F7620F731F841F951F8A
:10058000A01D0895FC010590615070400110D8F73E
:10059000809590958E0F9F1F0895FC0161507040CB
:1005A00001900110D8F7809590958E0F9F1F0895A8
:1005B000FC011382128288EE93E0A0E0B0E0848315
:1005C0009583A683B78389E193E09183808308951F
:1005D000FC018089803419F421E030E002C020E081
:1005E00030E0C9010895FC01818990E00895FC0183
:1005F0006487458766874787089580E090E008957F
:1006000080E090E0089580E090E008950895EF92F2
:10061000FF921F93CF93DF93162F7A0186E060E05D
:100620000E943E338BE796E060E00E94F3298BE75F
:1006300096E060E00E94F3298BE796E069E00E9473
:10064000F3298BE796E0612F0E94F329C0E0D0E008
:10065000F701EC0FFD1F10818BE796E06AE00E9426
:10066000F3298BE796E06C2F0E94F3298BE796E045
:100670006BE00E94F3298BE796E0612F0E94F3293B
:100680002196C633D10521F78BE796E068E00E94FA
:10069000F3298BE796E060EA0E94F3298BE796E066
:1006A00060EA0E94F32985FDF9CF8BE796E060E0D0
:1006B0000E94F3298BE796E06CE00E94F32986E024
:1006C00061E00E943E33DF91CF911F91FF90EF9048
:1006D00008951F93CF93DF93EC01162F86E060E01F
:1006E0000E943E338BE796E060E00E94F3291123DD
:1006F00019F0113059F404C08BE796E0688904C002
:1007000068896C618BE796E00E94F32986E061E0DE
:100710000E943E33DF91CF911F910895EF92FF9297
:100720000F931F938EE1489F70011124E60EF11C78
:1007300086E060E00E943E330BE716E0C80165E00A
:100740000E94F329C8016F2D0E94F329C80166E0B9
:100750000E94F329C8016E2D0E94F3291F910F9169
:10076000FF90EF900895EF92FF920F931F937C01FB
:100770000BE716E0C80167E00E94F329C8016FEF9C
:100780000E94F32986E061E00E943E33F7018785ED
:100790008F5F87871F910F91FF90EF900895EF92E1
:1007A000FF920F931F93FC01E7848EE1E89E700196
:1007B00011248685E80EF11C86E060E00E943E333D
:1007C0000BE716E0C80164E00E94F329C80163E06A
:1007D0000E94F329C80165E00E94F329C8016F2D2A
:1007E0000E94F329C80166E00E94F329C8016E2D1A
:1007F0000E94F3291F910F91FF90EF9008951F938E
:10080000CF93DF93EC01162F6C3731F40E94B303C2
:10081000CE010E94CF030AC08BE796E067E00E94FA
:10082000F3298BE796E0612F0E94F32981E090E0A5
:10083000DF91CF911F9108950F931F9386E060E0A1
:100840000E943E330BE716E0C80164E00E94F329E2
:10085000C80164E00E94F32986E061E00E943E3313
:100860001F910F9108951F938DE896E066E973E05C
:100870000E94D930882361F0813011F412E009C060
:10088000823011F411E005C0833011F410E001C092
:1008900013E0109265041092640417C06091640420
:1008A00070916504605F8BE796E00E94F3298BE707
:1008B00096E0612F0E94F329809164049091650471
:1008C00001969093650480936404809164049091F0
:1008D000650440971CF31F910895CF93DF93EC01BB
:1008E00086E060E00E943E338BE796E060EA0E947B
:1008F000F3298BE796E06FEF0E94F32980FF05C094
:1009000080E4888B88E0898B13C08DE896E060E9ED
:1009100073E00E94D930882319F4188A86E003C056
:1009200080E4888B88E0898B86E060E00E943E331B
:10093000DF91CF910895CF92DF92FF920F931F9393
:100940006C0186E061E00E94FF3282E060E00E947C
:10095000FF3282E061E00E943E33C6010E946D04D6
:1009600086E060E00E943E330BE716E0C8016CEEC3
:100970000E94F329C8016FEF0E94F329F82EC801E5
:1009800060E00E94F329F60160896260C8010E945C
:10099000F32962E370E080E090E00E946132C801D8
:1009A0006CE60E94F329FFEEFF22C8016F2D0E9422
:1009B000F329C6010E943304C60161E00E94690365
:1009C0001F910F91FF90DF90CF9008951F920F928B
:1009D0000FB60F9211242F933F934F938F939F93B2
:1009E000EF93FF934091C60020917C0630917D06E5
:1009F0002F5F3F4F809180069091810628233923F5
:100A000080917E0690917F062817390779F08091B2
:100A10007C0690917D06E0918206F0918306E80FB6
:100A2000F91F408330937D0620937C06FF91EF9160
:100A30009F918F914F913F912F910F900FBE0F90EB
:100A40001F9018951F920F920FB60F9211242F939B
:100A50003F938F939F93EF93FF932091860630915E
:100A60008706809184069091850628173907E9F05A
:100A70008091860690918706E0918A06F0918B0618
:100A8000E80FF91F80818093C600809186069091BF
:100A90008706019620918806309189068223932348
:100AA000909387068093860610C02091840630912B
:100AB000850680918606909187062817390729F4C4
:100AC0008091C1008F7D8093C100FF91EF919F9134
:100AD0008F913F912F910F900FBE0F901F901895FF
:100AE0008F92AF92CF92EF92FF920F931F9384EE6B
:100AF00094E060E045EC50E024EC30E000EC10E0E5
:100B0000F1ECEF2EF12CCC24C394E8E9AE2E70E288
:100B1000872E0E94492A81E095E00E94D8021F9109
:100B20000F91FF90EF90CF90AF908F9008958091AC
:100B300013058130C1F40E94533268517C4F8F4FAE
:100B40009F4F60931405709315058093160590933D
:100B500017051092130590E080911805882309F479
:100B600091E0909318050E94533220911405309122
:100B700015054091160550911705261737074807A8
:100B8000590718F481E0809313050895EF92FF92BE
:100B90000F931F9380910503882361F4909187053B
:100BA00080919405891719F081E0809395059093C1
:100BB0009405C0C0809196058430C9F590913D059B
:100BC000892F8650823008F4B5C080919705891727
:100BD000A1F0909397050E9453326093980570930B
:100BE000990580939A0590939B0590919705809124
:100BF0000603981711F411E001C010E00E9453326F
:100C0000209198053091990540919A0550919B0546
:100C1000621B730B840B950B615D774080409040A5
:100C200008F47AC080913D058093060375C0853035
:100C300029F480919C0590919D0514C0863029F47B
:100C400080919E0590919F050DC0873029F4809179
:100C5000A0059091A10506C0883041F48091A205BD
:100C60009091A30590938905809388058091A405B0
:100C70002091880530918905882349F544E0203B7F
:100C8000340740F480919405882321F081E080931B
:100C900095054EC0C901805B94408955924040F44F
:100CA00080919405813021F081E0809395050CC0FE
:100CB0002950374008F43EC0809194058230D1F12C
:100CC00081E08093950582E08093940533C0215B99
:100CD000344080F1E0909805F090990500919A05D4
:100CE00010919B0588EE93E0A0E0B0E0E80EF91EBD
:100CF0000A1F1B1F0E945332E616F7060807190742
:100D0000C8F40E94533260939805709399058093BC
:100D10009A0590939B0502C0112361F081E08093B6
:100D20009505809194058F5F80939405833010F032
:100D3000109294051F910F91FF90EF9008956F927C
:100D40007F928F929F92AF92BF92CF92DF92EF925B
:100D5000FF920F931F936091DE057091DF058091E4
:100D6000E0059091E10520911D0530911E0540910F
:100D70001F05509120050E94673620E030E040E7D3
:100D800052E40E9467362DEC3CEC4CEC5DE30E9493
:100D900067367B018C0160917605709177058091B3
:100DA00078059091790526E636E646E65FE30E94EF
:100DB00067369B01AC01C801B7010E94CC33609338
:100DC0007605709377058093780590937905409127
:100DD00070058091BA05992787FD9095242F30E002
:100DE0008217930714F44093BA050E9453325B01B3
:100DF0006C018091660690916706A0916806B0919B
:100E00006906A81AB90ACA0ADB0A0E94533260931B
:100E100066067093670680936806909369066090F3
:100E20008A0570908B0580908C0590908D05C4018B
:100E3000B30120E030E040E85FE30E945C36181622
:100E400024F5C601B5010E9432359B01AC01C401F5
:100E5000B3010E94673620E030E04AE754E40E9484
:100E600099349B01AC016091C3057091C4058091D8
:100E7000C5059091C6050E94CC336093C30570935D
:100E8000C4058093C5059093C60560919205709145
:100E90009305882777FD8095982F0E94343520E0B0
:100EA00030E040E251E40E9467367B018C01C601CC
:100EB000B5010E9432359B01AC01C801B7010E9407
:100EC000673620E03AEB4BE55AE40E9499349B01E7
:100ED000AC016091710570917205809173059091DC
:100EE00074050E94CC3360937105709372058093F2
:100EF00073059093740580913E05882309F4AEC074
:100F00006091B6057091B7058091B8059091B905CB
:100F10006A0D7B1D8C1D9D1D6093B6057093B705F2
:100F20008093B8059093B90528EE33E040E050E097
:100F30000E94B43730936F0520936E0560916A0567
:100F400070916B0580916C0590916D050E94343510
:100F50007B018C012091BF053091C0054091C105F6
:100F60005091C2050E945C36181644F4E092BF0509
:100F7000F092C0050093C1051093C205E0907B0577
:100F8000F0907C0500917D0510917E05C801B701A8
:100F900020916A0630916B0640916C0650916D0667
:100FA0000E945C36181644F4E0926A06F0926B06D2
:100FB00000936C0610936D06C401B3012091C70520
:100FC0003091C8054091C9055091CA050E945C3610
:100FD000181644F46092C7057092C8058092C9053E
:100FE0009092CA05E0902B05F0902C0500912D05FC
:100FF00010912E05C801B7012091CB053091CC0589
:101000004091CD055091CE050E945C36181644F4EF
:10101000E092CB05F092CC050093CD051093CE0560
:10102000E0903305F09034050091350510913605B8
:10103000C801B70120916E0630916F06409170068D
:10104000509171060E945C36181644F4E0926E06C8
:10105000F0926F0600937006109371061F910F9126
:10106000FF90EF90DF90CF90BF90AF909F908F90C8
:101070007F906F9008958DE896E06AE773E00E9494
:10108000D9308823B1F586E696E6A6E6B0E48093EB
:10109000190590931A05A0931B05B0931C0580E0D9
:1010A00090E0A0E8BFE380931D0590931E05A093F8
:1010B0001F05B093200580E1809321058CE080938B
:1010C00022058AEB90E090932405809323058AE023
:1010D0008093020310922605109225058BE18093E0
:1010E000270588EE93E090932905809328058AE1EF
:1010F00037C082E598EBAEE0B0E480931905909399
:101100001A05A0931B05B0931C0585E89BEEA1E58D
:10111000B0E480931D0590931E05A0931F05B09326
:10112000200589E18093210586E6809322058BEBDB
:1011300090E0909324058093230582E1809302033D
:1011400080E89CE090932605809325058CE18093B0
:10115000270580EA94E190932905809328058EE184
:1011600080932A050895CF93DF938DE896E06CE78E
:1011700073E00E94D93080937F058DE896E06EE79A
:1011800073E00E94D93080937A058DE896E060E89C
:1011900073E00E94D930809380058DE896E06EE878
:1011A00073E00E94D9308093A4058DE896E066E74D
:1011B00073E00E94D930809387058DE896E06AE855
:1011C00073E00E94D930809396058DE896E064E83C
:1011D00073E00E94D9308093B4058DE896E066E80C
:1011E00073E00E94D9308093B3058DE896E06CE8F7
:1011F00073E00E94D930809383058DE896E062E920
:1012000073E00E94D930809381058DE896E064E90F
:1012100073E00E94D93080938205C0E0D0E0BE0127
:1012200068567C4F8DE896E00E94D930FE01E75564
:10123000FA4F8083882321F02196C830D10579F7B1
:10124000C755DA4F1982DF91CF910895BC018DE81F
:1012500096E00E94D9300895DF92EF92FF920F93AB
:101260001F93CF93DF93D82E7B0160912B05709154
:101270002C0580912D0590912E0520911D05309112
:101280001E0540911F05509120050E94673620E001
:1012900030E040EA50E40E94CC332DEC3CEC4CE8CA
:1012A00050E40E9467360E9401358B019C01CB01FE
:1012B00001978B9788F4C80169E070E00E94A1371C
:1012C000CFECD0E0C81BD90BC80169E070E00E94E8
:1012D000A137E60EF71E0CC00C3211051CF4CFEC42
:1012E000D0E006C084E090E0E80EF91EC8ECD0E043
:1012F00001E015E09EE0D90EC8016D2D4E2D0E9433
:101300008E0300D000D000D0EDB7FEB73196ADB758
:10131000BEB712961C930E93119780E091E09383D1
:101320008283D583C4830E94282A8DB79EB70696F0
:101330000FB6F8949EBF0FBE8DBFDF91CF911F9166
:101340000F91FF90EF90DF900895BF92CF92DF92C0
:10135000EF92FF920F931F93CF93DF93C82FD0E0AC
:10136000CC0FDD1FC257DF4F613009F069C0C0905C
:101370001905D0901A05E0901B05F0901C05B0905F
:1013800021054DB75EB7465150400FB6F8945EBF89
:101390000FBE4DBF0DB71EB70F5F1F4F81E095E029
:1013A000ADB7BEB712969C938E93119783E091E0F0
:1013B000F801938382838DE190E095838483C70154
:1013C000B601209133053091340540913505509197
:1013D00036050E946736D80116966D937D938D93DE
:1013E0009C9319971A96BC921A971B961C921B975E
:1013F0001D96DC93CE931C9721961F96DC93CE937B
:101400001E97C701B60120913705309138054091EC
:10141000390550913A050E946736F801608B718B4F
:10142000828B938BB48A158A0E94282A4DB75EB7A7
:101430004A5E5F4F0FB6F8945EBF0FBE4DBF52C0FD
:1014400081E095E09E012F5F3F4F623039F5ADB7E7
:10145000BEB71C970FB6F894BEBF0FBEADBFEDB7B9
:10146000FEB7319612969C938E93119789E191E085
:1014700093838283D583C4833783268380913B05FE
:1014800090913C059187808785E090E093878287E3
:101490000E94282AEDB7FEB73C961FC04DB75EB735
:1014A000485050400FB6F8945EBF0FBE4DBFEDB729
:1014B000FEB73196ADB7BEB712969C938E93119737
:1014C00083E291E093838283D583C4833783268329
:1014D0000E94282AEDB7FEB738960FB6F894FEBFE3
:1014E0000FBEEDBFDF91CF911F910F91FF90EF9055
:1014F000DF90CF90BF9008952F923F924F925F92CE
:101500006F927F928F929F92AF92BF92CF92DF9213
:10151000EF92FF920F931F93DF93CF9300D000D0F1
:1015200000D0CDB7DEB7182F662E20912F05309151
:1015300030052A35310530F0C9018D549F4F89356A
:101540009105E8F437FF02C02D543F4FC90137FF22
:1015500003C0909581959F4F8A3191053CF0B9ED7C
:101560008B2E912CA8EF2A2E312C1DC00A975CF1EE
:10157000F0ED8F2E912CE3EF2E2E312C20C02B3549
:10158000310514F0235B3040C90137FF03C090954B
:1015900081959F4F8A31910554F07BEE872E912CD7
:1015A0006BEF262E312C57E0A52EB12C15C00A97D3
:1015B00054F042EE842E912C35EF232E312C28E06E
:1015C000A22EB12C09C096EC892E912C8DEC282EE0
:1015D000312C09E0A02EB12C6091310570913205BB
:1015E000882777FD8095982F0E94343527EA32E9C5
:1015F0004BE25CEB0E9467360E943B3720E030E014
:1016000040EA50E40E94673620E030E040E951E4CF
:101610000E9467360E94CA3620E030E044E352E47C
:101620000E94CC330E940135712E1EEBC12E1FEF9C
:10163000D12E9B01442737FD4095542F29833A83AF
:101640004B835C83B1E04B2EB5E05B2E4AEF5FEF3E
:10165000240E351E60912F0570913005882777FD87
:101660008095982F0E94343525E33AEF4EE85CE3ED
:101670000E9467360E943B377B018C01B6018827A8
:1016800077FD8095982F0E9434359B01AC01C801ED
:10169000B7010E9467367B018C0169817A818B8159
:1016A0009C810E9434359B01AC01C801B7010E94A6
:1016B000CC330E9401359B01CB0101978A359105FE
:1016C00008F071C062E170E00E94A1378B012F5FCA
:1016D0003F4FAEEEBFEF6A9FC0016B9F900D7A9FA8
:1016E000900D1124820F931F62E070E00E94A137D9
:1016F0006D837E83E62CE01A4E2D4C5F81E095E0F1
:10170000672D0E948E0300D000D000D0EDB7FEB749
:101710003196ADB7BEB712965C924E92119720E00B
:1017200031E0338322838D819E81880D991D9583BD
:1017300084830E94282A4DB75EB74A5F5F4F0FB679
:10174000F8945EBF0FBE4DBF8D819E818A159B05AB
:1017500054F1043011053CF593E0E90EC201672D08
:101760004E2D0E948E0300D000D000D0EDB7FEB702
:101770003196ADB7BEB712965C924E92119720E0AB
:1017800031E0338322834D815E81420D531D5583A9
:1017900044830E94282A8DB79EB706960FB6F89408
:1017A0009EBF0FBE8DBFACE0B0E0CA0EDB1E7394CF
:1017B000BEE4CB16D10409F04DCF26960FB6F894AF
:1017C000DEBF0FBECDBFCF91DF911F910F91FF9074
:1017D000EF90DF90CF90BF90AF909F908F907F90D1
:1017E0006F905F904F903F902F90089560914205C9
:1017F00070914305809144059091450520E030E0CB
:1018000040EC51E40E94673620E030E044EB53E4C2
:101810000E9499340E94CA360E9401359B012350D0
:10182000304037FF03C09B012B5E3F4FAEE4B5E075
:10183000F901E95DFB4F80818C932F5F3F4F283189
:10184000310514F020E030E0119685E0A935B807A5
:1018500079F71092550508950F931F93282F462F5F
:1018600081E095E0622F0E94F70281E095E00E94FE
:10187000CF0380913D05882319F428E231E066C04A
:10188000813019F42DE231E061C0823019F422E395
:1018900031E05CC0833019F427E331E057C0843075
:1018A00019F42CE331E052C0853019F421E431E021
:1018B0004DC0863019F426E431E048C0873019F471
:1018C0002BE431E043C0893019F420E531E03EC01B
:1018D0008A3019F425E531E039C08B3019F42AE556
:1018E00031E034C08D3019F42FE531E02FC08F3056
:1018F00019F424E631E02AC0803119F429E631E0F8
:1019000025C0813119F42EE631E020C0823119F46E
:1019100024E731E01BC0833119F42AE731E016C017
:10192000843119F420E831E011C0853119F426E83A
:1019300031E00CC0863119F42BE831E007C0873163
:1019400019F020E931E002C021E931E04DB75EB77E
:101950004A5050400FB6F8945EBF0FBE4DBFEDB772
:10196000FEB7319601E015E0ADB7BEB712961C93F5
:101970000E93119786E991E0938382838FE790E03D
:10198000958384833783268380913E0590E026E803
:1019900030E0AC01429FC001439F900D529F900DDB
:1019A0001124918780870E94282A8DB79EB70A96B6
:1019B0000FB6F8949EBF0FBE8DBFC8010E94B3033F
:1019C0001F910F9108950F931F93282F462F01E029
:1019D00015E0C801622F0E94F702C8010E94CF03E0
:1019E00080913F0560E00E94A509C8010E94B303F1
:1019F0001F910F9108950F931F93282F462F01E0F9
:101A000015E0C801622F0E94F702C8010E94CF03AF
:101A10008DB79EB70A970FB6F8949EBF0FBE8DBFC5
:101A2000EDB7FEB73196ADB7BEB712961C930E93C5
:101A3000119786E991E09383828383EC90E095830C
:101A400084838EE495E09783868387E890E091878E
:101A500080870E94282A8DB79EB70A960FB6F89401
:101A60009EBF0FBE8DBFC8010E94B3031F910F918F
:101A700008950F931F93282F462F01E015E0C8010A
:101A8000622F0E94F702C8010E94CF038DB79EB754
:101A90000A970FB6F8949EBF0FBE8DBFEDB7FEB785
:101AA0003196ADB7BEB712961C930E9311978DE980
:101AB00091E0938382838091420590914305A091A8
:101AC0004405B091450584839583A683B78385E05B
:101AD00090E0918780870E94282A8DB79EB70A964A
:101AE0000FB6F8949EBF0FBE8DBFC8010E94B3030E
:101AF0001F910F9108950F931F93282F462F01E0F8
:101B000015E0C801622F0E94F702C8010E94CF03AE
:101B10008DB79EB70C970FB6F8949EBF0FBE8DBFC2
:101B2000EDB7FEB73196ADB7BEB712961C930E93C4
:101B3000119785EA91E09383828380915A05909171
:101B40005B05A0915C05B0915D0584839583A683B8
:101B5000B78380915E0590915F05A0916005B0917B
:101B6000610580879187A287B3870E94282A8DB755
:101B70009EB70C960FB6F8949EBF0FBE8DBFC801DE
:101B80000E94B3031F910F9108950F931F93282F65
:101B9000462F81E095E0622F0E94F70281E095E0F8
:101BA0000E94CF0380916205823011F42FE105C0BD
:101BB000833011F42FE001C02AE2809163059091F7
:101BC0006405883C910520F080911805811120E280
:101BD0008DB79EB708970FB6F8949EBF0FBE8DBF06
:101BE000EDB7FEB7319601E015E0ADB7BEB712967E
:101BF0001C930E93119783EB91E09383828324834C
:101C0000158280916505868317820E94282A8DB7E8
:101C10009EB708960FB6F8949EBF0FBE8DBFC80141
:101C20000E94B3031F910F9108950F931F93282FC4
:101C3000462F01E015E0C801622F0E94F702C8019B
:101C40000E94CF038DB79EB70A970FB6F8949EBF38
:101C50000FBE8DBFEDB7FEB73196ADB7BEB71296CA
:101C60001C930E93119789EB91E09383828380916B
:101C7000660590916705A0916805B0916905848318
:101C80009583A683B7838DE090E0918780870E943B
:101C9000282A8DB79EB70A960FB6F8949EBF0FBE3E
:101CA0008DBFC8010E94B3031F910F9108950F9338
:101CB0001F93282F462F01E015E0C801622F0E94D4
:101CC000F702C8010E94CF038DB79EB70A970FB6DF
:101CD000F8949EBF0FBE8DBFEDB7FEB73196ADB77E
:101CE000BEB712961C930E93119781EC91E09383EB
:101CF000828380912F05909130059583848385E0C0
:101D000090E09783868386E090E0918780870E94A9
:101D1000282A8DB79EB70A960FB6F8949EBF0FBEBD
:101D20008DBFC8010E94B3031F910F9108950F93B7
:101D30001F93282F462F01E015E0C801622F0E9453
:101D4000F702C8010E94CF038DB79EB70A970FB65E
:101D5000F8949EBF0FBE8DBFEDB7FEB73196ADB7FD
:101D6000BEB712961C930E93119781EC91E093836A
:101D7000828380913105909132059583848385E03B
:101D800090E09783868387E090E0918780870E9428
:101D9000282A8DB79EB70A960FB6F8949EBF0FBE3D
:101DA0008DBFC8010E94B3031F910F910895EF9258
:101DB000FF920F931F93282F462F11E0E12E15E07D
:101DC000F12EC701622F0E94F702C7010E94CF03C4
:101DD0008DB79EB70C970FB6F8949EBF0FBE8DBF00
:101DE0000DB71EB70F5F1F4FEDB7FEB7F282E1824E
:101DF00089EC91E0F801938382838BE090E09583F6
:101E0000848360916A0570916B0580916C05909157
:101E10006D050E94343520911D0530911E054091BD
:101E20001F05509120050E946736F801668377836D
:101E30008087918780912205828713860E94282AB5
:101E40008DB79EB70C960FB6F8949EBF0FBE8DBF90
:101E5000C7010E94B3031F910F91FF90EF90089567
:101E60000F931F93282F462F01E015E0C801622F22
:101E70000E94F702C8010E94CF0320916E053091A5
:101E80006F058DB79EB70A970FB6F8949EBF0FBE29
:101E90008DBFEDB7FEB73196ADB7BEB712961C93A6
:101EA0000E93119783ED91E093838283C9016CE3D4
:101EB00070E00E94A137CB016CE370E00E94A13773
:101EC000958384838AE390E097838683C9016CE3DA
:101ED00070E00E94A137918780870E94282A8DB7E1
:101EE0009EB70A960FB6F8949EBF0FBE8DBFC8016D
:101EF0000E94B3031F910F910895CF93DF93282F72
:101F0000462FC1E0D5E0CE01622F0E94F702CE013C
:101F10000E94CF038DE896E068E773E00E94D93015
:101F2000813039F58DB79EB70A970FB6F8949EBFEA
:101F30000FBE8DBFEDB7FEB73196ADB7BEB71296E7
:101F4000DC93CE9311978DED91E09383828387E1AB
:101F500090E095838483809170058683178285E263
:101F600090E0918780870E94282A8DB79EB70A96B5
:101F70002CC0ADB7BEB71C970FB6F894BEBF0FBE4E
:101F8000ADBFEDB7FEB731961296DC93CE931197A5
:101F900087EE91E09383828387E190E09583848349
:101FA0008091710590917205A0917305B0917405AF
:101FB00086839783A087B18781E090E093878287AB
:101FC0000E94282A8DB79EB70C960FB6F8949EBF34
:101FD0000FBE8DBF81E095E00E94B303DF91CF91EA
:101FE00008950F931F93282F462F01E015E0C80195
:101FF000622F0E94F702C8010E94CF038DB79EB7DF
:1020000008970FB6F8949EBF0FBE8DBFEDB7FEB711
:102010003196ADB7BEB712961C930E93119781EF10
:1020200091E093838283809175058483158285E294
:1020300090E0978386830E94282A8DB79EB70896E2
:102040000FB6F8949EBF0FBE8DBFC8010E94B303A8
:102050001F910F910895BF92CF92DF92EF92FF925E
:102060000F931F93282F462F81E095E0622F0E9447
:10207000F70281E095E00E94CF0380911305813043
:1020800009F038C180916205823028F4DD24D394B0
:10209000BB24B39402C0DD24BB246091760570910B
:1020A000770580917805909179050E940135AB0103
:1020B00077FF03C0509541955F4F80917A052AE0E4
:1020C000829FC0011124841795072CF4CC24C3945B
:1020D000DD24D39401C0CC2460917B0570917C05F4
:1020E00080917D0590917E052091190530911A050A
:1020F00040911B0550911C050E9467367B018C01A5
:1021000060917F0570E080E090E00E9432359B0195
:10211000AC01C801B7010E945C36181624F411E026
:10212000DD24D39401C010E06091800570E080E070
:1021300090E00E94323520E030E040E251E40E941D
:1021400099349B01AC01609166057091670580919F
:102150006805909169050E94923487FD0AC09091AC
:10216000810580917005891710F4992311F440E0DE
:1021700003C041E0DD24D394209103033091040394
:102180008091820590E0281739075CF42D593F4F64
:1021900041F080918305882321F431E0DD24D3943C
:1021A00001C030E0809184058823C9F4DD2069F006
:1021B0008B2D90E001968C0D911D810F911D840F48
:1021C000911D830F911D029739F489EF91E090934F
:1021D00086058093850503C081E080938405809106
:1021E0008405813069F491E0B91639F486E092E013
:1021F000909386058093850503C082E080938405D3
:1022000080918405823069F4A1E0CA1639F483E133
:1022100092E0909386058093850503C083E08093C8
:10222000840580918405833061F4113039F480E2B3
:1022300092E0909386058093850503C084E08093A7
:10224000840580918405843061F4413039F48DE255
:1022500092E0909386058093850503C085E0809386
:10226000840520918405253041F4313031F48AE32E
:1022700092E090938605809385052F5F20938405D7
:10228000B1E0DB1639F480918705833018F41092A1
:1022900005030AC08091880590918905805B944070
:1022A00018F481E080930503263010F01092840525
:1022B00000D000D000D0EDB7FEB7319681E095E0B8
:1022C000ADB7BEB712969C938E93119787E492E0B8
:1022D000938382838091850590918605958384837D
:1022E0000E94282A8DB79EB706960FB6F8949EBF17
:1022F0000FBE8DBF81E095E00E94B3031F910F9147
:10230000FF90EF90DF90CF90BF900895EF92FF92F3
:102310000F931F93CF93DF93282F462FC1E0D5E073
:10232000CE01622F0E94F702CE010E94CF038DE8FA
:1023300096E062E773E00E94D9308823F1F000D084
:1023400000D000D0EDB7FEB73196ADB7BEB712964C
:10235000DC93CE93119780E091E09383828383E1B5
:1023600090E0958384830E94282AEDB7FEB73696C5
:102370000FB6F894FEBF0FBEEDBF8DB79EB70A979C
:102380000FB6F8949EBF0FBE8DBF0DB71EB70F5F7F
:102390001F4F81E0E82E85E0F82EADB7BEB712964C
:1023A000FC92EE9211978AE492E0F8019383828383
:1023B00060917B0570917C0580917D0590917E05F3
:1023C0002091190530911A0540911B0550911C056B
:1023D0000E946736D80114966D937D938D939C93DC
:1023E00017978091210518968C93189719961C922F
:1023F0000E94282AEDB7FEB73A960FB6F894FEBFB2
:102400000FBEEDBFC7010E94B303DF91CF911F91B3
:102410000F91FF90EF900895EF92FF920F931F930B
:10242000CF93DF93282F462FC1E0D5E0CE01622F56
:102430000E94F702CE010E94CF038DE896E060E78C
:1024400073E00E94D9308823F1F000D000D000D092
:10245000EDB7FEB73196ADB7BEB71296DC93CE930B
:10246000119780E091E09383828384E190E09583EB
:1024700084830E94282AEDB7FEB736960FB6F894EB
:10248000FEBF0FBEEDBF8DB79EB70A970FB6F8948B
:102490009EBF0FBE8DBF0DB71EB70F5F1F4F91E0E0
:1024A000E92E95E0F92EADB7BEB71296FC92EE92EA
:1024B00011978AE492E0F8019383828360918A0500
:1024C00070918B0580918C0590918D052091190557
:1024D00030911A0540911B0550911C050E946736EA
:1024E000D80114966D937D938D939C93179780914B
:1024F000210518968C93189719961C920E94282AE9
:10250000EDB7FEB73A960FB6F894FEBF0FBEEDBF1B
:10251000C7010E94B303DF91CF911F910F91FF90EC
:10252000EF900895EF92FF920F931F93CF93DF9355
:10253000282F462FC1E0D5E0CE01622F0E94F7027E
:10254000CE010E94CF038DE896E06EE673E00E9414
:10255000D9308823F1F000D000D000D0EDB7FEB71D
:102560003196ADB7BEB71296DC93CE93119780E04B
:1025700091E09383828382E190E0958384830E943B
:10258000282AEDB7FEB736960FB6F894FEBF0FBEF9
:10259000EDBF8DB79EB70A970FB6F8949EBF0FBEDA
:1025A0008DBF0DB71EB70F5F1F4F21E0E22E25E054
:1025B000F22EADB7BEB71296FC92EE92119782E55D
:1025C00092E0F8019383828360912B0570912C0532
:1025D00080912D0590912E0520911D0530911E05AD
:1025E00040911F05509120050E946736D80114962E
:1025F0006D937D938D939C931797809122051896E8
:102600008C93189719961C920E94282AEDB7FEB752
:102610003A960FB6F894FEBF0FBEEDBFC7010E94F9
:10262000B303DF91CF911F910F91FF90EF90089529
:10263000EF92FF920F931F93282F462F31E0E32E46
:1026400035E0F32EC701622F0E94F702C7010E94F6
:10265000CF038DB79EB70E970FB6F8949EBF0FBEEF
:102660008DBF0DB71EB70F5F1F4FEDB7FEB7F282DC
:10267000E1828AE592E0F8019383828385E190E02C
:1026800095838483609176057091770580917805B4
:102690009091790520E030E040E251E40E949934C5
:1026A0000E940135882777FD8095982F0E94343548
:1026B00020E030E040E251E40E946736F801668392
:1026C00077838087918780912A058287138680E2AD
:1026D00090E0958784870E94282A8DB79EB70E9632
:1026E0000FB6F8949EBF0FBE8DBFC7010E94B30303
:1026F0001F910F91FF90EF900895EF92FF920F932B
:102700001F93CF93DF93282F462FC1E0D5E0CE0152
:10271000622F0E94F702CE010E94CF038DE896E05F
:102720006CE673E00E94D9308823F1F000D000D02D
:1027300000D0EDB7FEB73196ADB7BEB71296DC93B9
:10274000CE93119780E091E09383828381E190E0C2
:10275000958384830E94282AEDB7FEB736960FB67C
:10276000F894FEBF0FBEEDBF8DB79EB70A970FB6A8
:10277000F8949EBF0FBE8DBF0DB71EB70F5F1F4FE2
:1027800041E0E42E45E0F42EADB7BEB71296FC92C0
:10279000EE92119782E592E0F80193838283609133
:1027A0008E0570918F0580919005909191052091F3
:1027B0001D0530911E0540911F05509120050E9476
:1027C0006736D80114966D937D938D939C931797DC
:1027D0008091220518968C93189719961C920E9446
:1027E000282AEDB7FEB73A960FB6F894FEBF0FBE93
:1027F000EDBFC7010E94B303DF91CF911F910F91ED
:10280000FF90EF900895EF92FF920F931F93282F60
:10281000462F51E0E52E55E0F52EC701622F0E94AC
:10282000F702C7010E94CF038DB79EB70A970FB674
:10283000F8949EBF0FBE8DBF0DB71EB70F5F1F4F21
:10284000EDB7FEB7F282E18289EB91E0F801938364
:1028500082836091920570919305882777FD80951A
:10286000982F0E9434352AE037ED43E25CE30E9462
:102870006736F80164837583868397838EE090E0E2
:10288000918780870E94282A8DB79EB70A960FB637
:10289000F8949EBF0FBE8DBFC7010E94B3031F9166
:1028A0000F91FF90EF900895CF93DF93282F462F3D
:1028B000C1E0D5E0CE01622F0E94F702CE010E9456
:1028C000CF030E94533228EE33E040E050E00E94F4
:1028D000B437CA01B9012CE330E040E050E00E9477
:1028E000B43727E432E0623071058105910588F440
:1028F00000D000D000D0EDB7FEB73196ADB7BEB76F
:102900001296DC93CE9311973383228389EA95E064
:1029100010C000D000D000D0EDB7FEB73196ADB7F3
:10292000BEB71296DC93CE9311973383228387E050
:1029300093E0958384830E94282A8DB79EB70696DC
:102940000FB6F8949EBF0FBE8DBF81E095E00E9448
:10295000B303DF91CF910895BF92CF92DF92EF92B0
:10296000FF920F931F93282F462F81E095E0622F4F
:102970000E94F70281E095E00E94CF0390918305C9
:1029800090FD4FC0C090B3058091B2058C1510F436
:10299000C092B205B090B4058091B205B81610F49B
:1029A000B092B205992369F4DD246091B20570E01C
:1029B0006C197D09882777FD8095982F0E94343502
:1029C00011C0983071F58091A2059091A3056AE03D
:1029D00070E00E948D37DD246C197D0980E090E065
:1029E0000E9432357B018C016B2D70E06C197D09E2
:1029F000882777FD8095982F0E9434359B01AC0184
:102A0000C801B7010E94993420E030E048EC52E45C
:102A10000E9467360E94013570930403609303039C
:102A200013C0913039F48091B20580930303109262
:102A300004030AC0993041F48091A2059091A30546
:102A40009093040380930303609103037091040344
:102A5000882777FD8095982F0E94343520E030E05C
:102A600048EC52E40E945C36181634F484E690E098
:102A700090930403809303038DB79EB70A970FB614
:102A8000F8949EBF0FBE8DBFEDB7FEB7319601E043
:102A900015E0ADB7BEB712961C930E93119786E65C
:102AA00092E09383828389E090E095838483809190
:102AB0000303909104039783868385E290E09187D6
:102AC00080870E94282A8DB79EB70A960FB6F89481
:102AD0009EBF0FBE8DBFC8010E94B3031F910F910F
:102AE000FF90EF90DF90CF90BF900895DF92EF922C
:102AF000FF920F931F93CF93DF93282F462F81E0F0
:102B000095E0622F0E94F70281E095E00E94CF03DA
:102B100080913E05882309F487C0D0907005CD2DA3
:102B2000D0E08091B505992787FD9095C817D90702
:102B3000D9F16D2D70E080E090E00E9432357B018C
:102B40008C016091B6057091B7058091B8059091A0
:102B5000B9050E9432359B01AC01C801B7010E9442
:102B600067367B018C016091BA05772767FD709508
:102B70006C1B7D0B882777FD8095982F0E9434353C
:102B80009B01AC01C801B7010E94993420E030E0FC
:102B90004AE754E40E9499340E9406357093BC05BC
:102BA0006093BB05D092B5052091BB053091BC0563
:102BB0008DB79EB70C970FB6F8949EBF0FBE8DBF12
:102BC000EDB7FEB7319681E095E0ADB7BEB712968E
:102BD0009C938E9311978EE692E09383828387E194
:102BE00090E095838483C9016CE370E00E94A13773
:102BF000CB016CE370E00E94A137978386838AE360
:102C000090E091878087C9016CE370E00E94A13752
:102C1000938782870E94282A8DB79EB70C960FB69D
:102C2000F8949EBF0FBE8DBF81E095E00E94B30374
:102C3000DF91CF911F910F91FF90EF90DF9008955A
:102C4000EF92FF920F931F93282F462F61E0E62EFD
:102C500065E0F62EC701622F0E94F702C7010E94AD
:102C6000CF038DB79EB70A970FB6F8949EBF0FBEDD
:102C70008DBF0DB71EB70F5F1F4FEDB7FEB7F282C6
:102C8000E1828AE792E0F801938382832091020334
:102C900030E08091BD059091BE056AE070E00E9431
:102CA0008D37CB01289FB001299F700D389F700D83
:102CB00011242091250530912605620F731F80E0B5
:102CC00090E00E94323520E030E048EC52E40E946F
:102CD0009934F801648375838683978380912305F3
:102CE00090912405918780870E94282A8DB79EB7EE
:102CF0000A960FB6F8949EBF0FBE8DBFC7010E9403
:102D0000B3031F910F91FF90EF9008959F92AF92A0
:102D1000BF92CF92DF92EF92FF920F931F9371E0D9
:102D2000A72E75E0B72EC5016BE044E00E94F702C4
:102D3000C5010E94CF0320916E0530916F05C090B0
:102D40001D05D0901E05E0901F05F0902005909085
:102D500022058DB79EB7C0970FB6F8949EBF0FBEE1
:102D60008DBF0DB71EB70F5F1F4FEDB7FEB7B28215
:102D7000A18282E892E0F8019383828388E090E068
:102D800095838483C9016CE370E00E94A137CB0175
:102D90006CE370E00E94A137978386838AE390E01A
:102DA00091878087C9016CE370E00E94A137938707
:102DB00082878BE090E095878487C701B6012091D8
:102DC000BF053091C0054091C1055091C2050E94D8
:102DD00067360E940135F80177876687908A118AE5
:102DE0008FE890E0938B828BC701B6012091C305D9
:102DF0003091C4054091C5055091C6050E946736C3
:102E00000E940135F801758B648B968A178A84E1DC
:102E100090E0918F808F6091C7057091C805809177
:102E2000C9059091CA052091190530911A05409164
:102E30001B0550911C050E9467360E940135F80160
:102E4000738F628F80912105848F158E82E190E0CF
:102E5000978F868FC701B6012091CB053091CC05A5
:102E60004091CD055091CE050E9467360E940135F4
:102E7000F80171A360A392A213A283E090E095A34E
:102E800084A380915A0590915B05A0915C05B09157
:102E90005D0586A397A3A0A7B1A784E090E093A7C0
:102EA00082A780915E0590915F05A0916005B09129
:102EB000610584A795A7A6A7B7A70E94282A8DB762
:102EC0009EB7C0960FB6F8949EBF0FBE8DBFC501CA
:102ED0000E94B3031F910F91FF90EF90DF90CF906E
:102EE000BF90AF909F900895CF92DF92EF92FF92A4
:102EF0000F931F93CF93DF93282F462FC1E0D5E088
:102F0000CE01622F0E94F702CE010E94CF03609192
:102F1000C3057091C4058091C5059091C6052091A7
:102F20001D0530911E0540911F05509120050E94FE
:102F300067366B017C0120E03CE34CE156E40E94E3
:102F40005C361816C4F58DB79EB70C970FB6F8947B
:102F50009EBF0FBE8DBF0DB71EB70F5F1F4FADB722
:102F6000BEB71296DC93CE93119780EC92E0F801F5
:102F7000938382838FE890E0958384836091280512
:102F80007091290580E090E00E9432359B01AC01F0
:102F9000C701B6010E949934D80116966D937D93AE
:102FA0008D939C931997809127051A968C931A9765
:102FB0001B961C9221C08DB79EB70C970FB6F89444
:102FC0009EBF0FBE8DBFEDB7FEB73196ADB7BEB792
:102FD0001296DC93CE93119789EC91E093838283D0
:102FE0008FE890E095838483C682D782E086F1865D
:102FF00080912205828713860E94282AEDB7FEB7AA
:103000003C960FB6F894FEBF0FBEEDBF81E095E091
:103010000E94B303DF91CF911F910F91FF90EF902A
:10302000DF90CF900895EF92FF920F931F93282F78
:10303000462F81E095E0622F0E94F70281E095E043
:103040000E94CF038091CF059091D00564E670E097
:103050000E948D3780E090E00E9432352091420539
:103060003091430540914405509145050E94CB3372
:103070007B018C0120E030E044EB53E40E94993462
:1030800020E030E040E851E40E94673620E030E084
:1030900040E85FE30E94CC330E94CA360E940135AB
:1030A000862F6093D10567FF03C0805F8093D105B1
:1030B0008091D105882319F480E18093D105809116
:1030C000D105813119F481E08093D105C801B701A0
:1030D00020E030E044E353E40E945C3618164CF4E0
:1030E000C801B70120E030E044EB53E40E94CB3349
:1030F00015C0C801B70120E030E044E353EC0E9462
:10310000923488234CF4C801B70120E030E044EB4E
:1031100053E40E94CC3302C0C801B7010E940635B7
:1031200070933C0560933B058091D10562E00E945D
:10313000A50981E095E00E94B3031F910F91FF90D4
:10314000EF900895EF92FF920F931F93CF93DF9329
:10315000282F462F81E095E0622F0E94F70281E040
:1031600095E00E94CF032091400530914105121651
:1031700013062CF02115310559F128593E4FB9019C
:10318000882777FD8095982F0E943435209142053D
:103190003091430540914405509145050E94CB3341
:1031A00020E030E044EB53E40E94993420E030E02A
:1031B00040E851E40E9467360E94CA3620E030E0C1
:1031C00040E85FE30E94CC330E94013560934605DE
:1031D0008091460587FF03C0805F809346058091FC
:1031E0004605882319F480E180934605E090470561
:1031F000F09048050091490510914A05C801B701B2
:1032000020E030EC49E754E40E945C3618162CF4B8
:1032100080E090ECA9E7B4E40EC0C801B70120E05B
:1032200030EC49E754EC0E949234882364F480E047
:1032300090ECA9E7B4EC8093470590934805A093E0
:103240004905B0934A058DB79EB742970FB6F894DB
:103250009EBF0FBE8DBF0DB71EB70F5F1F4FC1E0E2
:10326000D5E0EDB7FEB7D283C1838AEC92E0F801D6
:103270009383828387E590E09583848380E790E061
:103280009783868380914B058087118613861286EB
:1032900060914C0570914D0580E090E00E943235C0
:1032A00020911D0530911E0540911F05509120056C
:1032B0000E946736F80164877587868797878091B3
:1032C0002205808B118A0E94282A8DB79EB74296CC
:1032D0000FB6F8949EBF0FBE8DBF8091460560E08B
:1032E0000E94A50980913D058A3009F045C0EDB7DF
:1032F000FEB770970FB6F894FEBF0FBEEDBF0DB7C7
:103300001EB70F5F1F4FD283C1838CED92E0F8018F
:103310009383828380E290E09583848388E590E0C4
:103320009783868385E690E0918780876091470543
:10333000709148058091490590914A0520911D059D
:1033400030911E0540911F05509120050E9467365F
:10335000F801628773878487958780912205868725
:1033600017860E94282A8DB79EB740960FB6F8940C
:103370009EBF0FBE8DBF10C000D000D0EDB7FEB70E
:10338000D283C18386ED90E0948383830E94172AC1
:103390000F900F900F900F9081E095E00E94B30383
:1033A000DF91CF911F910F91FF90EF9008950F93B0
:1033B0001F93282F462F01E015E0C801622F0E94BD
:1033C000F702C8010E94CF0300D000D0EDB7FEB7CE
:1033D000128301838FED90E0948383830E94172AE8
:1033E0000F900F900F900F90C8010E94B3031F9190
:1033F0000F910895CF92DF92EF92FF920F931F9358
:103400007C01D62EC72E01E015E0C8016E2D4D2D92
:103410000E94F702C8010E94CF0300D000D0EDB790
:10342000FEB7128301838CEE90E0948383830E9425
:10343000172A0F900F900F900F90C8010E94B303AE
:10344000C70101966D2D7C2D0E947C0AC7016D2D50
:103450007C2D0E942C091F910F91FF90EF90DF901F
:10346000CF9008950F931F9301E015E0C80165E028
:1034700045E00E94F702C8010E94CF0300D000D0AF
:10348000EDB7FEB7128301838CE391E094838383CD
:103490000E94172A0F900F900F900F90C8010E9462
:1034A000B3031F910F9108950E94321A0E943B08A6
:1034B0000895EF92FF920F931F930E9453320E9440
:1034C00032357B018C016091D2057091D3058091DA
:1034D000D4059091D50520E030E849E055E40E94FC
:1034E000CC339B01AC01C801B7010E945C361816B1
:1034F00094F480911003823039F081E095E00E94CD
:103500001C0482E08093100385E090E06AE070E0A4
:103510000E94D71979C280913E05882309F092C292
:103520000E94533220E137E240E050E00E94B4377D
:1035300020FD88C26091C3057091C4058091C505C6
:103540009091C60520E030E048E452E40E945C36E9
:1035500018160CF077C280911003813039F081E0A9
:1035600095E00E941C0481E0809310030E9486165F
:103570004BC26091C6048091C40490E070E00E9448
:103580002B1080919605843010F00E94C605809122
:103590009505882321F480911003882341F081E070
:1035A00095E00E941C0410929505109210038091E2
:1035B0009405823009F428C2A82FB0E0FD01EA5931
:1035C000FB4F808181FF0BC0FD01EE58FB4F6081F6
:1035D000A059BB4F8C9190E070E00E94970E8091B3
:1035E0009405A82FB0E0FD01EA59FB4F808182FFCE
:1035F0000BC0FD01EA58FB4F6081AC58BB4F8C916A
:1036000090E070E00E94570E80919405A82FB0E0E2
:10361000FD01EA59FB4F808183FF0BC0FD01E65895
:10362000FB4F6081A858BB4F8C9190E070E00E94E6
:10363000150E80919405A82FB0E0FD01EA59FB4FCB
:10364000808185FF0BC0FD01E258FB4F6081A458CB
:10365000BB4F8C9190E070E00E94C50D8091940565
:10366000A82FB0E0FD01EA59FB4F808187FF0BC016
:10367000FD01EA57FB4F6081AC57BB4F8C9190E046
:1036800070E00E947B0D80919405A82FB0E0FD01B1
:10369000EA59FB4F808184FF0BC0FD01E657FB4FC9
:1036A0006081A857BB4F8C9190E070E00E947D0F25
:1036B00080919405A82FB0E0FD01EA59FB4F80816D
:1036C00086FF0BC0FD01EE57FB4F6081A058BB4F3A
:1036D0008C9190E070E00E94131880919405A82FBF
:1036E000B0E0FD01E859FB4F808180FF0BC0FD0178
:1036F000E257FB4F6081A457BB4F8C9190E070E084
:103700000E94FB0C80919405A82FB0E0FD01E859C0
:10371000FB4F808181FF0BC0FD01EE56FB4F6081A6
:10372000A057BB4F8C9190E070E00E94390D8091C2
:10373000D605813051F580919405A82FB0E0FD01A8
:10374000E859FB4F808184FF0BC0FD01E656FB4F1B
:103750006081A856BB4F8C9190E070E00E94D70E1C
:1037600080919405A82FB0E0FD01E859FB4F8081BE
:1037700083FF0BC0FD01EA56FB4F6081AC56BB4F87
:103780008C9190E070E00E94E30C80919405A82F4A
:10379000B0E0FD01E859FB4F808187FF0BC0FD01C0
:1037A000EE55FB4F6081A056BB4F8C9190E070E0CE
:1037B0000E94300F80914B058823A9F080919405D9
:1037C000A82FB0E0FD01E859FB4F808186FF0BC0B8
:1037D000FD01E256FB4F6081A456BB4F8C9190E0F7
:1037E00070E00E94A21880919405A82FB0E0FD011E
:1037F000E659FB4F808182FF0BC0FD01E655FB4F70
:103800006081A855BB4F8C9190E070E00E947D13C1
:1038100080919405A82FB0E0FD01E659FB4F80810F
:1038200087FF0BC0FD01E255FB4F6081A455BB4FE4
:103830008C9190E070E00E94921280919405A82FE4
:10384000B0E0FD01E659FB4F808183FF0BC0FD0115
:10385000EE54FB4F6081A055BB4F8C9190E070E01F
:103860000E940C1280919405A82FB0E0FD01E6594A
:10387000FB4F808181FF0BC0FD01EA54FB4F60814B
:10388000AC54BB4F8C9190E070E00E948611809107
:103890009405A82FB0E0FD01E659FB4F808184FF1D
:1038A0000BC0FD01E654FB4F6081A854BB4F8C91C7
:1038B00090E070E00E94F10F80919405A82FB0E095
:1038C000FD01E659FB4F808185FF0BC0FD01E254ED
:1038D000FB4F6081A454BB4F8C9190E070E00E943C
:1038E0002C0C80919405A82FB0E0FD01E659FB4F08
:1038F000808186FF0BC0FD01EE53FB4F6081A05419
:10390000BB4F8C9190E070E00E94FA198091940571
:10391000A82FB0E0FD01E659FB4F808180FF0BC06E
:10392000FD01EA55FB4F6081AC55BB4F8C9190E097
:1039300070E00E94031480919405A82FB0E0FD016F
:10394000E459FB4F808183FF0BC0FD01E253FB4F25
:103950006081A453BB4F8C9190E070E00E941813DB
:1039600080919405A82FB0E0FD01E459FB4F8081C0
:1039700086FF0BC0FD01EE52FB4F6081A053BB4F91
:103980008C9190E070E00E94AC1480919405A82F77
:10399000B0E0FD01E459FB4F808187FF0BC0FD01C2
:1039A000EA52FB4F6081AC52BB4F8C9190E070E0CB
:1039B0000E94761580919405A82FB0E0FD01E25990
:1039C000FB4F808181FF0BC0FD01E252FB4F608104
:1039D000A452BB4F8C9190E070E00E942016809121
:1039E0009405A82FB0E0FD01E259FB4F808182FFD2
:1039F0000BC0FD01EE51FB4F6081A052BB4F8C917B
:103A000090E070E00E94741780919405A82FB0E0B8
:103A1000FD01E170F070E459FB4F808185FF0BC020
:103A2000FD01E652FB4F6081A852BB4F8C9190E0A4
:103A300070E00E9454140E9497051F910F91FF900F
:103A4000EF90089580916C0480FF9BCD92CDCF9331
:103A5000DF93EC0181E095E00E94F302C817D907DB
:103A60003CF081E095E00E94E802892B09F423975D
:103A7000CE01DF91CF910895EF92FF920F931F93A4
:103A8000CF93DF930091940510E08AEF90E0089FB8
:103A90007001099FF00C189FF00C1124C701885683
:103AA0009F4F0E942609F801EA59FB4F882319F01D
:103AB0008081806102C080818F7E808380919405A7
:103AC000C82FD0E0C70186569F4F0E942609C857CD
:103AD000DB4F888380919405C82FD0E0C7018456BE
:103AE0009F4F0E94260990E00E94271DC657DB4F7A
:103AF00088830091940510E0C70106960E9426096C
:103B0000F801EA59FB4F882319F08081826002C0D6
:103B100080818D7F808380919405C82FD0E0C7017C
:103B200008960E942609C059DB4F8883809194052E
:103B3000C82FD0E0C7010A960E94260990E00E9493
:103B4000271DCE58DB4F88830091940510E0C701F4
:103B50000C960E942609F801EA59FB4F882319F0B8
:103B60008081846002C080818B7F808380919405F6
:103B7000C82FD0E0C7010E960E942609CC58DB4F13
:103B8000888380919405C82FD0E0C70140960E9499
:103B9000260990E00E94271DCA58DB4F88830091B8
:103BA000940510E0C70142960E942609F801EA59DF
:103BB000FB4F882319F08081886002C08081877F55
:103BC000808380919405C82FD0E0C70144960E945D
:103BD0002609C858DB4F888380919405C82FD0E010
:103BE000C70146960E94260990E00E94271DC658EC
:103BF000DB4F88830091940510E0C7014E960E9428
:103C00002609F801EA59FB4F882319F08081806268
:103C100002C080818F7D808380919405C82FD0E081
:103C2000C70180960E942609C458DB4F8883809183
:103C30009405C82FD0E0C70182960E94260990E023
:103C40000E94271DC258DB4F88830091940510E025
:103C5000C70184960E942609F801EA59FB4F882380
:103C600019F08081806402C080818F7B8083809185
:103C70009405C82FD0E0C70186960E942609C05837
:103C8000DB4F888380919405C82FD0E0C7018896C8
:103C90000E94260990E00E94271DCE57DB4F8883A3
:103CA0000091940510E0C7018A960E942609F80148
:103CB000EA59FB4F882319F08081806802C0808117
:103CC0008F77808380919405C82FD0E0C7018C96B0
:103CD0000E942609CC57DB4F888380919405C82F1A
:103CE000D0E0C7018E960E94260990E00E94271D11
:103CF000CA57DB4F88830091940510E0C701C09636
:103D00000E942609F801E859FB4F882319F08081A9
:103D1000816002C080818E7F808380919405C82F4E
:103D2000D0E0C701C2960E942609C457DB4F8883A2
:103D300080919405C82FD0E0C701C4960E9426093F
:103D400090E00E94271DC257DB4F888300919405A5
:103D500010E0C701C6960E942609F801E859FB4FFA
:103D6000882319F08081826002C080818D7F8083EA
:103D700080919405C82FD0E0C701C8960E942609FB
:103D8000C057DB4F888380919405C82FD0E0C701CE
:103D9000CA960E94260990E00E94271DCE56DB4F4E
:103DA00088830091940510E0C701885B9F4F0E94B3
:103DB0002609F801E859FB4F882319F080818061BA
:103DC00002C080818F7E808380919405C82FD0E0CF
:103DD000C701865B9F4F0E942609C856DB4F888328
:103DE00080919405C82FD0E0C701845B9F4F0E944B
:103DF000260990E00E94271DC656DB4F888300915C
:103E0000940510E0C7018E5B9F4F0E942609F801C0
:103E1000E859FB4F882319F08081886002C08081B7
:103E2000877F808380919405C82FD0E0C7018C5B89
:103E30009F4F0E942609CC56DB4F888380919405C2
:103E4000C82FD0E0C7018A5B9F4F0E94260990E0EF
:103E50000E94271DCA56DB4F88830091940510E00D
:103E6000C7018A5A9F4F0E942609F801E859FB4F63
:103E7000882319F08081806402C080818F7B8083D9
:103E800080919405C82FD0E0C701885A9F4F0E94A7
:103E90002609C456DB4F888380919405C82FD0E053
:103EA000C701865A9F4F0E94260990E00E94271D55
:103EB000C256DB4F88830091940510E0C7018256FB
:103EC0009F4F0E942609F801E859FB4F882319F0FB
:103ED0008081806802C080818F7780838091940583
:103EE000C82FD0E0C70180569F4F0E942609C056B8
:103EF000DB4F888380919405C82FD0E0C7018E5591
:103F00009F4F0E94260990E00E94271DCE55DB4F4F
:103F100088830091940510E0C7018E599F4F0E943D
:103F20002609F801E659FB4F882319F0808181604A
:103F300002C080818E7F808380919405C82FD0E05D
:103F4000C7018C599F4F0E942609CC55DB4F8883AF
:103F500080919405C82FD0E0C7018A599F4F0E94D5
:103F6000260990E00E94271DCA55DB4F88830091E7
:103F7000940510E0C70182599F4F0E942609F8015D
:103F8000E659FB4F882319F08081846002C080814C
:103F90008B7F808380919405C82FD0E0C701805922
:103FA0009F4F0E942609C855DB4F88838091940556
:103FB000C82FD0E0C7018E589F4F0E94260990E07D
:103FC0000E94271DC655DB4F88830091940510E0A1
:103FD000C70184579F4F0E942609F801E659FB4FFD
:103FE000882319F08081806802C080818F77808368
:103FF00080919405C82FD0E0C70182579F4F0E943F
:104000002609C455DB4F888380919405C82FD0E0E2
:10401000C70180579F4F0E94260990E00E94271DEC
:10402000C255DB4F88830091940510E0C7018E567E
:104030009F4F0E942609F801E659FB4F882319F08B
:104040008081826002C080818D7F80838091940511
:10405000C82FD0E0C7018C569F4F0E942609CC5430
:10406000DB4F888380919405C82FD0E0C7018A5622
:104070009F4F0E94260990E00E94271DCA54DB4FE3
:1040800088830091940510E0C7018C589F4F0E94CF
:104090002609F801E659FB4F882319F080818860D2
:1040A00002C08081877F808380919405C82FD0E0F3
:1040B000C7018A589F4F0E942609C055DB4F88834D
:1040C00080919405C82FD0E0C70188589F4F0E9467
:1040D000260990E00E94271DCE54DB4F8883009173
:1040E000940510E0C70186589F4F0E942609F801E9
:1040F000E659FB4F882319F08081806102C08081DE
:104100008F7E808380919405C82FD0E0C7018458AA
:104110009F4F0E942609C854DB4F888380919405E5
:10412000C82FD0E0C70182589F4F0E94260990E017
:104130000E94271DC654DB4F88830091940510E030
:10414000C70180589F4F0E942609F801E659FB4F8E
:10415000882319F08081806202C080818F7D8083F6
:1041600080919405C82FD0E0C7018E579F4F0E94C1
:104170002609C454DB4F888380919405C82FD0E072
:10418000C7018C579F4F0E94260990E00E94271D6F
:10419000C254DB4F88830091940510E0C7018A5711
:1041A0009F4F0E942609F801E659FB4F882319F01A
:1041B0008081806402C080818F7B808380919405A0
:1041C000C82FD0E0C70188579F4F0E942609C054CE
:1041D000DB4F888380919405C82FD0E0C7018657B4
:1041E0009F4F0E94260990E00E94271DCE53DB4F6F
:1041F00088830091940510E0C7018C559F4F0E9461
:104200002609F801E459FB4F882319F08081816069
:1042100002C080818E7F808380919405C82FD0E07A
:10422000C7018A559F4F0E942609CC53DB4F8883D4
:1042300080919405C82FD0E0C70188559F4F0E94F8
:10424000260990E00E94271DCA53DB4F8883009106
:10425000940510E0C70180559F4F0E942609F80180
:10426000E459FB4F882319F08081846002C080816B
:104270008B7F808380919405C82FD0E0C7018E5436
:104280009F4F0E942609C853DB4F88838091940575
:10429000C82FD0E0C7018C549F4F0E94260990E0A0
:1042A0000E94271DC653DB4F88830091940510E0C0
:1042B000C7018A549F4F0E942609F801E459FB4F19
:1042C000882319F08081886002C08081877F808385
:1042D00080919405C82FD0E0C70188549F4F0E9459
:1042E0002609C453DB4F888380919405C82FD0E002
:1042F000C70186549F4F0E94260990E00E94271D07
:10430000C253DB4F88830091940510E0C701845AA3
:104310009F4F0E942609F801E459FB4F882319F0AA
:104320008081806402C080818F7B8083809194052E
:10433000C82FD0E0C701825A9F4F0E942609C05360
:10434000DB4F888380919405C82FD0E0C701805A45
:104350009F4F0E94260990E00E94271DCE52DB4FFE
:1043600088830091940510E0C7018E539F4F0E94EF
:104370002609F801E459FB4F882319F080818068F1
:1043800002C080818F77808380919405C82FD0E010
:10439000C7018C539F4F0E942609CC52DB4F888364
:1043A00080919405C82FD0E0C7018A539F4F0E9487
:1043B000260990E00E94271DCA52DB4F8883009196
:1043C000940510E0C70188539F4F0E942609F80109
:1043D000E459FB4F882319F08081806202C08081FC
:1043E0008F7D808380919405C82FD0E0C7018653CC
:1043F0009F4F0E942609C852DB4F88838091940505
:10440000C82FD0E0C70184539F4F0E94260990E037
:104410000E94271DC652DB4F88830091940510E04F
:10442000C7018C529F4F0E942609F801E259FB4FA9
:10443000882319F08081826002C080818D7F808313
:1044400080919405C82FD0E0C7018A529F4F0E94E7
:104450002609C452DB4F888380919405C82FD0E091
:10446000C70188529F4F0E94260990E00E94271D95
:10447000C252DB4F88830091940510E0C70180523F
:104480009F4F0E942609F801E259FB4F882319F03B
:104490008081846002C080818B7F808380919405BD
:1044A000C82FD0E0C7018E519F4F0E942609C052ED
:1044B000DB4F888380919405C82FD0E0C7018C51D1
:1044C0009F4F0E94260990E00E94271DCE51DB4F8E
:1044D0008883DF91CF911F910F91FF90EF90089506
:1044E0008DE896E064E773E00E94D930813039F0BE
:1044F0008DE896E064E773E041E00E94E0308DE8EB
:1045000096E062EA73E00E94D930823039F08DE89B
:1045100096E062EA73E042E00E94E0308DE896E0C7
:1045200064EA73E00E94D930843039F08DE896E077
:1045300064EA73E044E00E94E0308DE896E066EAC9
:1045400073E00E94D930813039F08DE896E066EA58
:1045500073E041E00E94E03008958F929F92AF9205
:10456000BF92CF92DF92FF920F931F93CF93DF936F
:10457000F62E4901C82EDD248601000F111F5801B7
:10458000AC0CBD1CE501CC0FDD1FCC0FDD1FCA5AE2
:10459000D94F18828B819C818430910509F48EC09B
:1045A000853091055CF48230910509F443C0833075
:1045B00091050CF0BFC09923C4F44FC28730910518
:1045C00009F443C18830910544F48530910509F41C
:1045D000DEC0069709F041C207C18830910509F491
:1045E0007AC1099709F039C2E7C18EEF681709F05F
:1045F00034C282E090E09C838B8380E790E0C89E89
:10460000D001C99EB00DD89EB00D1124AA51BA4F49
:1046100013961C92139788E390E0C89EF001C99E00
:10462000F00DD89EF00D1124EE0FFF1FE851FA4F48
:104630006083A4C1E5E6E61788F489818F5F8983EA
:10464000F501EE0FFF1FEE0FFF1FE85AF94F8081B3
:104650008F5F8083188281E090E02DC080E790E03A
:10466000C89EF001C99EF00DD89EF00D1124EA51AC
:10467000FA4F63831D8280818627282F2295207F11
:10468000282730E0522F4427C90163E0880F991F83
:104690006A95E1F748275927818190E048275927F3
:1046A00084E0359527958A95E1F742275327518372
:1046B000408384E090E09C838B83CFC18CE190E0C9
:1046C000C89EF001C99EF00DD89EF00D1124EE0F8A
:1046D000FF1FEE0FFF1FE651FA4F608380E790E067
:1046E000C89EF001C99EF00DD89EF00D1124EA512C
:1046F000FA4F80818627282F2295207F282730E0B7
:10470000522F4427C901B3E0880F991FBA95E1F7EA
:1047100048275927818190E048275927A4E03595FB
:104720002795AA95E1F7422753275183408383E0D9
:1047300090E0C1CF80E790E0C89EF001C99EF00DE7
:10474000D89EF00D1124EA51FA4F658380818627A7
:10475000282F2295207F282730E0522F4427C90197
:1047600063E0880F991F6A95E1F7482759278181EF
:1047700090E04827592704E0359527950A95E1F7F9
:10478000422753275183408385E090E094CF80E710
:1047900090E0C89EF001C99EF00DD89EF00D112446
:1047A000EA51FA4F668380818627282F2295207F41
:1047B000282730E0522F4427C901B3E0880F991F02
:1047C000BA95E1F748275927818190E04827592772
:1047D000A4E035952795AA95E1F742275327518301
:1047E000408386E090E067CF80E790E0C89EF001CC
:1047F000C99EF00DD89EF00D1124EA51FA4F67833F
:1048000080818627282F2295207F282730E0522F6D
:104810004427C90163E0880F991F6A95E1F748278B
:104820005927818190E04827592794E035952795AD
:104830009A95E1F742275327518340838381882348
:1048400009F446C087E090E036CF6D81F80183E03F
:10485000EE0FFF1F8A95E1F7E01BF10B319603E0A5
:10486000EE0FFF1F0A95E1F7E60FF11DEA51FA4F2F
:10487000F0826F5F6D8380E790E0C89EF001C99E73
:10488000F00DD89EF00D1124EA51FA4F80818F254A
:10489000282F2295207F282730E0522F4427C90156
:1048A000B3E0880F991FBA95E1F74827592781810E
:1048B00090E048275927A4E035952795AA95E1F778
:1048C00042275327518340838381681709F0C5C06D
:1048D00088E090E0F0CE80E790E0C89ED001C99ECD
:1048E000B00DD89EB00D1124AA51BA4F9C911796C5
:1048F000EC911797F0E0E95DFC4F80818927482F04
:104900004295407F482750E0342F2227CA0173E0A8
:10491000880F991F7A95E1F72827392711968C91EE
:10492000119790E02827392764E0559547956A95B7
:10493000E1F72427352711963C932E938F2D90E095
:10494000307082179307F9F0F501EE0FFF1FEE0F9D
:10495000FF1FE85AF94F80818F5F8083188281E0C2
:1049600090E09C838B83FEEFFF1609F076C082E017
:1049700090E09C838B8313961C9213978FEF9FEF8D
:104980008D939C936AC089E090E09C838B83F801AF
:1049900083E0EE0FFF1F8A95E1F7E01BF10B3196E4
:1049A00003E0EE0FFF1F0A95E1F78D81E80FF11D7F
:1049B000EA51FA4FF08251C0262F30E080E790E0B4
:1049C000C89EB001C99E700DD89E700D11246A5109
:1049D0007A4FFB01818190E028173907E9F0F50152
:1049E000EE0FFF1FEE0FFF1FE85AF94F80818F5F18
:1049F0008083188281E090E09C838B83FEEFFF161A
:104A000061F582E090E09C838B83EB011B828FEF4A
:104A10009FEF9983888321C081E0888381E090E0C3
:104A20009C838B83F801B3E0EE0FFF1FBA95E1F78B
:104A3000E01BF10B3196A3E0EE0FFF1FAA95E1F703
:104A40008D81E80FF11DE951FA4FF082DA01FB0187
:104A500080E701900D928150E1F7D601AA0FBB1FAC
:104A6000AC0DBD1DAA0FBB1FAA0FBB1FAA5AB94F81
:104A70008C91813069F58CE190E0C89EF001C99E6F
:104A8000F00DD89EF00D1124EE0FFF1FEE0FFF1F4B
:104A9000E651FA4F808116968C93169718968D9151
:104AA0009C911997892B21F41B961C921E921A97A0
:104AB000F601EE0FFF1FEC0DFD1DEE0FFF1FEE0FB9
:104AC000FF1FEA5AF94F808591850196918780876B
:104AD000F601EE0FFF1FEC0DFD1DEE0FFF1FEE0F99
:104AE000FF1FDF01AA5AB94F16968C9116978F5F58
:104AF000E4018E8318968D919C91199799878887E8
:104B0000E85AF94F80818A871B8610828C91DF9149
:104B1000CF911F910F91FF90DF90CF90BF90AF90FA
:104B20009F908F9008956F927F929F92AF92BF92C5
:104B3000CF92DF92EF92FF920F931F93DF93CF9369
:104B4000CDB7DEB7C054D0400FB6F894DEBF0FBE6D
:104B5000CDBF81E095E00E941C0400D000D004EE9F
:104B600014E0EDB7FEB7128301838FE591E09483E3
:104B700083830E94172A2BE5622E21E0722EEE24F9
:104B8000FF24CC24DD240F900F900F900F90902ED7
:104B9000012F5E010894A11CB11C84EE94E00E94D8
:104BA000CB2A982F8D3031F08D30D4F08053823065
:104BB000B8F40BC0183039F40894E11CF11CF5016D
:104BC000EE0DFF1D108210E00BC0F501EE0DFF1D74
:104BD0008081880F8083913311F48F5F80831F5F02
:104BE000F0E4EF16F104C9F481E095E0B601A50107
:104BF0000E9407030894C11CD11C00D000D0EDB75F
:104C0000FEB791820283748263820E94172AEE2487
:104C1000FF240F900F900F900F90FFEFCF16D1044D
:104C200009F00CF4BACFC05CDF4F0FB6F894DEBFCA
:104C30000FBECDBFCF91DF911F910F91FF90EF90ED
:104C4000DF90CF90BF90AF909F907F906F9008952E
:104C5000AF92BF92CF92DF92EF92FF920F931F938A
:104C6000DF93CF93CDB7DEB7CC57D0400FB6F894D3
:104C7000DEBF0FBECDBF8E01035F1F4F5E010894E4
:104C8000A11CB11CEE24E39435E1C32ED12CCC0E33
:104C9000DD1EBFC184EE94E00E94CB2AF82E8091E5
:104CA000D705882311F50E94533260527E4480401C
:104CB0009040D8F40E94533269587341804090402C
:104CC000A0F0FAE0FF1619F02DE0F21631F4809111
:104CD000D8058F5F8093D80502C01092D8058091C7
:104CE000D805833011F40E94932580E06F2DA80130
:104CF00095010E94AD22882309F487C10E94533296
:104D00000E9432356093D2057093D3058093D40509
:104D10009093D505E092D7058C898E3109F4F2C0C5
:104D20008F3158F4813099F18130D0F0883109F415
:104D30004EC08D3109F069C161C18E3309F405C1DE
:104D40008F3338F4833209F41FC18A3209F05DC110
:104D500016C18A3409F48EC0883A09F056C134C1AC
:104D6000E092D9058A898093DA058B898093DB05E7
:104D7000F801808580933D0586858093DC05881F3A
:104D80008827881F80933E051092DD053EC1F801FB
:104D90006689778980E090E00E94323520E030E03B
:104DA0004AE754E40E94993460936605709367055E
:104DB0008093680590936905F801808D918D90939B
:104DC00093058093920586A1809370051EC1F8011A
:104DD000608D718D828D938D0E94343520E030E09E
:104DE0004AE754E40E94993460938E0570938F05CE
:104DF0008093900590939105F8016089718982896B
:104E000093890E94343520E836E948E15BE40E944A
:104E1000993460935A0570935B0580935C05909379
:104E20005D05F80164897589868997890E94343502
:104E300020E836E948E15BE40E94993460935E051E
:104E400070935F058093600590936105F601848DF2
:104E500080936205858D80936505828D938D9093F7
:104E6000D0058093CF0584899589909364058093BC
:104E70006305CBC0F60180819181A281B3818093CB
:104E80007B0590937C05A0937D05B0937E0584817E
:104E90009581A681B78180938A0590938B05A09315
:104EA0008C05B0938D05F801608D718D882777FD95
:104EB0008095982F0E943435609342057093430586
:104EC0008093440590934505F801828D8093750584
:104ED00080899189A289B38980932B0590932C05B1
:104EE000A0932D05B0932E05F60184859585A685A2
:104EF000B7858093DE059093DF05A093E005B0931E
:104F0000E10583C0F801608971898289938921EE66
:104F10003EE245E652E40E9467360E9401357093F6
:104F2000320560933105F80164857585868597851E
:104F300021EE3EE245E652E40E9467360E940135CA
:104F40007093300560932F0560C0F801868D978DB2
:104F5000909341058093400580A191A190934D05C8
:104F600080934C05808D918DA28DB38D80934705E4
:104F700090934805A0934905B0934A0546C0F801AF
:104F8000808580934B0541C0F6018485958590937B
:104F90009D0580939C058685978590939F058093BA
:104FA0009E05F801808D918D9093A1058093A005B9
:104FB000F601828993899093A3058093A205F80155
:104FC000858D8093B20521C0F60180819181A281F7
:104FD000B3818093A5059093A605A093A705B093F0
:104FE000A80584819581A681B7818093330590932C
:104FF0003405A0933505B093360507C0F8018489C0
:1050000095899093BE058093BD058AE890E00E9443
:10501000BA3284EE94E00E949B2A181619060CF40A
:1050200039CE8091E2059091E3052B853C85820F76
:10503000931F9093E3058093E2052B818091E40513
:105040009091E505820F911D9093E5058093E4050D
:10505000C458DF4F0FB6F894DEBF0FBECDBFCF915F
:10506000DF911F910F91FF90EF90DF90CF90BF9055
:10507000AF90089586E061E00E943E3308950F935B
:105080001F9386E061E00E94FF3204EE14E0C80145
:1050900040E052EC61E070E00E94392A10938F06E4
:1050A00000938E060E943A2881E095E00E949B04BE
:1050B0000E94541A64EF71E080E090E00E94613237
:1050C0000E94B3081092940507C00E943C1D809175
:1050D00094058F5F80939405809194058230A8F3A6
:1050E0001092940560ED77E080E090E00E946132DC
:1050F00084EE94E00E94182B1F910F9108952F9237
:105100003F924F925F926F927F928F929F92AF9257
:10511000BF92CF92DF92EF92FF920F931F93DF9394
:10512000CF9300D000D0CDB7DEB790913E05992344
:1051300031F080917206882311F41092D605909375
:1051400072068091D605882349F5809162058230E8
:1051500008F403C180915A0590915B05A0915C050C
:10516000B0915D058093730690937406A0937506C5
:10517000B093760680915E0590915F05A0916005E1
:10518000B09161058093770690937806A093790695
:10519000B0937A0681E08093D605DFC0813009F0B4
:1051A000DCC0E0907306F0907406009175061091D3
:1051B0007606C801B7019F7725E33AEF4EE85CE336
:1051C0000E9467360E94963469837A838B839C831E
:1051D000C801B70120915A0530915B0540915C05EB
:1051E00050915D050E94CB331B012C019F7720EC71
:1051F0003BE649ED57E40E9467365B016C01609124
:105200007706709178068091790690917A062091C0
:105210005E0530915F0540916005509161050E94E7
:10522000CB333B014C019F7720EC3BE649ED57E443
:105230000E94673629813A814B815C810E946736E2
:105240007B018C01C601B501A60195010E9467365C
:105250005B016C01C801B701A80197010E94673684
:105260009B01AC01C601B5010E94CC330E94EE3611
:105270000E94013560936A0570936B0580936C05FD
:1052800090936D0560E070E080E89FE329813A81AA
:105290004B815C810E9499349B01AC01C201B10138
:1052A0000E94673697FA909497F89094A40193011E
:1052B0000E943F3420EE3EE245E652E40E9467360B
:1052C00020E030E044EB52E40E94CC330E940135F0
:1052D0009B01AC0197FF04C028593E4F4F4F5F4FD1
:1052E000CA01B901645B70408040904097FF06C0DE
:1052F000CA01B9016C547F4F8F4F9F4F0E943435C4
:105300002091420530914305409144055091450557
:105310000E94CB330E94013597FF04C068597E4F2D
:105320008F4F9F4F0E94343520E030E044EB53E430
:105330000E94993420E030E040E851E40E94673652
:105340000E94CA360E940135DC01CB0160E170E0A9
:105350000E94A1378F5F80933F050F900F900F90B1
:105360000F90CF91DF911F910F91FF90EF90DF9001
:10537000CF90BF90AF909F908F907F906F905F90F5
:105380004F903F902F9008950E94F60B81E095E09A
:105390000E947F280E94591A0E949F060E94702234
:1053A00008950E9453322091620630916306409125
:1053B00064065091650628583F4F4F4F5F4F2617A0
:1053C00037074807590760F40E945332609362061A
:1053D0007093630680936406909365060E94C429C7
:1053E0000E94282608956EBD0DB407FEFDCF8EB530
:1053F00008958DE061E00E94FF328BE061E00E9441
:10540000FF328CE060E00E94FF328AE061E00E949F
:10541000FF321CBC80E58CBD8DB58EB508958BE741
:1054200096E00E94F92908958FEF9FE70895DF9392
:10543000CF93CDB7DEB7FE0139968D819E8161E0B5
:105440004F8158859F010E94B82CCF91DF9108951C
:10545000DF93CF93CDB7DEB7FE0139968D819E8164
:1054600060E04F8158859F010E94B82CCF91DF9159
:1054700008950F931F93DC01ED91FC910288F3894D
:10548000E02D20E030E000E010E009951F910F9141
:1054900008958F92AF92CF92EF92FF920F931F9346
:1054A000DF93CF93CDB7DEB7FC011382128288EE73
:1054B00093E0A0E0B0E084839583A683B7838FE474
:1054C00094E0918380835587448737872687118BA3
:1054D000008BF38AE28AC48AA58A868A70E0CB01AF
:1054E00023E0880F991F2A95E1F79C012458394F32
:1054F000308F278B8C57994F928F818F81E090E06E
:1055000002C0880F991F6A95E2F720918C06282B1C
:1055100020938C06CF0140E051EE60E070E00E94E5
:10552000392ACF91DF911F910F91FF90EF90CF908B
:10553000AF908F900895FC01838D882319F42FEF8D
:105540003FEF0DC00788F08DE02D208131818281F1
:105550009381281B390B8481958128233923C90124
:105560000895FC01838D882319F42FEF3FEF11C0BC
:10557000018CF28DE02D2081318182819381281B65
:10558000390B2095309584819581282339232F5F0D
:105590003F4FC9010895FC01838D882361F0A789DD
:1055A000B08D2D913C91119712968D919C911397EE
:1055B0002817390721F44FEF5FEFCA0108951296BB
:1055C0008D919C9113971696ED91FC911797E80F8A
:1055D000F91F408112968D919C9113970196149614
:1055E0002D913C9115978223932313969C938E9330
:1055F000129750E0E2CFFC01838D882351F0078899
:10560000F08DE02D20813181828193812817390727
:1056100021F42FEF3FEFC901089582819381068025
:10562000F781E02DE80FF91F8081282F30E0F3CFBC
:10563000DC015796ED91FC9158978281938191837B
:1056400080835996ED91FC915A9780819181938343
:1056500082830895DC015B968C915B978823A9F186
:105660005996ED91FC915A97208131812F5F3F4FE0
:1056700084819581282339235C968C915C978823BB
:1056800029F08281938128173907F9F0828193816B
:1056900028173907D9F3808191810680F781E02DA1
:1056A000E80FF91F60835996ED91FC915A97318369
:1056B00020835296ED91FC915397808156969C9150
:1056C000892B808321E030E002C020E030E0C90176
:1056D0000895CF93DF93EC011B821A828A819B810C
:1056E000998388831D821C828E819F81009721F07F
:1056F0000E9473311F821E82DF91CF9108950F9314
:105700001F938C01DC015296ED91FC9153972081FF
:1057100056968C91569755969C915597892B8095C6
:105720008223808357968D919C9158970E94692B74
:10573000F801818D928D0E94692BD8015B961C9295
:105740001F910F9108950F931F93CF93DF938C01B7
:10575000FC0113821282828193819183808341E0D4
:10576000A1E0B0E001C04F5FFD01042E02C0EE0FCA
:10577000FF1F0A94E2F79B0182E06130780710F086
:1057800020E032E0E217F30770F3C1E0D0E002C09E
:10579000CC0FDD1F4A95E2F72197F801268137816A
:1057A0002115310541F0848195818C179D0789F081
:1057B000C9010E947331F801D583C483CE010196DB
:1057C0000E94EC309C01F8019783868380E0232BB4
:1057D00009F081E0DF91CF911F910F910895AF9271
:1057E000BF92CF92DF92EF92FF920F931F93CF93CE
:1057F000DF937C015A016B01E901DC015B968C911E
:105800005B978823F1F02115310539F45796ED9116
:10581000FC915897C481D58121960115110549F451
:10582000D7015996ED91FC915A97048115810F5F2C
:105830001F4FD701ED91FC910088F189E02DC70140
:105840000995F7018789908D209711F4C0E8D0E081
:10585000BE010E94A32B882381F0D70159968D9118
:105860009C915A970115110511F400E110E0B8015F
:105870000E94A32B882309F04DC0D701ED91FC9124
:105880000088F189E02DC701099567C0D7015096BE
:10589000ED91FC915197B0E0AB16B1EEBB06B0E0D4
:1058A000CB06B0E0DB0609F454C081E090E0D701FC
:1058B00054960C9002C0880F991F0A94E2F78083D7
:1058C00060E079E08DE390E0A60195010E94D63773
:1058D0002150304040405040CA01B90122E030E040
:1058E00040E050E00E94D637D7011C96ED91FC9124
:1058F0001D9730831E96ED91FC911F972083D70151
:105900005296ED91FC915397808155969C91892BED
:10591000808323C0D7015996ED91FC915A97138249
:10592000128282819381918380835796ED91FC91BD
:10593000589713821282828193819183808381E0C0
:105940005B968C931A141B041C041D040CF49ECF4C
:10595000D6CF108220E130E0C7CFDF91CF911F91E9
:105960000F91FF90EF90DF90CF90BF90AF90089590
:105970002F923F924F925F926F927F928F929F925F
:10598000AF92BF92CF92DF92EF92FF920F931F934D
:10599000DF93CF93CDB7DEB764970FB6F894DEBF31
:1059A0000FBECDBF3C01688B5A8B498B69011C012E
:1059B000AE014F5F5F4F5C8B4B8BE989FA89488959
:1059C00040FD659140FF6191FA8BE98B662309F4F4
:1059D000D7C3653249F440FD859140FF8191FA8B30
:1059E000E98B8532B1F40CC06A3051F4D301ED91EA
:1059F000FC910190F081E02DC1016DE009956AE014
:105A0000D301ED91FC910190F081E02DC101099548
:105A1000D4CF982F10E0882499241032B0F49B3210
:105A200069F09C3228F4903251F0933271F40BC03B
:105A30009D3239F0903349F4116028C0126014602F
:105A400025C0186023C0106121C017FD2BC0892F0D
:105A500080538A3078F416FF06C0BAE09B9E902CE3
:105A60001124980E13C0EAE08E9E802C1124880E1B
:105A700010620CC09E3221F416FD82C3106406C071
:105A80009C3611F4106802C0983661F4E989FA89ED
:105A9000488940FD959140FF9191FA8BE98B9923BC
:105AA00009F0BBCF892F8554833020F4812F80618A
:105AB000905E07C0892F8556833008F0E6C1812F9C
:105AC0008F7E86FD02C076E0972E6FE3F62EF822D9
:105AD000953619F450E4F52A07C0963619F480E893
